:100AB00020506C6561736520576169742E2E2E205D
:100AC0000020202020202020202020202020202046
:100AD00020002020506C656173652053746172742E
:100AE0002020002020206D6561737572696E67207B
:100AF0002020200020436F6D65204F6E2020202095
:100B000020202020002056432049733A2020202016
:100B100020206D6C200020566974616C2043617048
:100B200061636974792000202049733A20202020D5
:100B30002020206D6C2020002057656C636F6D6550
:100B400020746F20557365200020202056432020FC
:0A0B500054657374657220202000C4
:100FAC0004140000000001110002180000020D00E2
:010FBC000034
:050F3600E4FF120E169D
:100F3B007FA57EDA7DCFDDFEDEFADFF67F08DFFEF2
:010F4B0000A5
:010F4C002282
:100F88007FCD7EC77D3DDDFEDEFADFF67F03DFFE27
:010F98000058
:010F99002235
:0E0FCF007F4F7EAC7D8EDDFEDEFADFF6000089
:010FDD0022F1
:050F9A00E4FF120E1639
:0C0F9F007FFE7E607D3CDDFEDEFADFF6AA
:010FAB002223
:080FBE00339280120FC6D281AC
:080FC6007F427E03DEFEDFFA2C
:010FCE002200
:0C0FDE007F037EEB7D07DDFEDEFADFF610
:010FEA0022E4
:100F1D00D3EF9400EE9400400F7DC27C8DDCFEDD9E
:080F2D00FAEF1F70EB1E80E8D3
:010F35002299
:040EE1007F327E00DE
:100EE500D3EF9400EE940040107D157C82DCFEDD8E
:090EF500FA00EF1F70EA1E80E70D
:010EFE0022D1
:100EFF00D3EF9400EE940040147D6E7C00ED1D70D6
:0D0F0F00011CED4C70F7EF1F70E61E80E333
:010F1C0022B2
:100F62008F2C120F4D852CA0D285C286C287C287D4
:030F7200D2872201
:0C0E9D007F057E00120EFFE4FDFC7F3894
:100EA9008F2CED4C6003120F4D852CA0C285C28694
:070EB900C287C287D2872225
:100F4D0075A0FFC285D286C287C287D287E5A02051
:050F5D00E7FBAFA0223C
:100D9800E4F5A0120EA5120E9D120E9D7F057E0091
:100DA800120EFF7D017C007F38120EA97D017C00A8
:100DB8007F08120EA97D017C007F01120EA97D011A
:100DC8007C007F06120EA97D017C007F0C020EA913
:0F0E4600E4FAF9F81208F9EF2430FB7D017F0977
:100E55008B2B53050153070FED60034307404307F1
:0D0E6500807D017C00120EA9AF2B020F62F0
:080D57007D01E47A0A7BC1FF73
:080D5F008F268D278A288B29BD
:100D6700E4F52A53270153260FE529252AF582E4BE
:100D77003528F583E493FBD394194014E526D394DF
:100D87000F50E6AD27AF26120E55052A052680D946
:010D97002239
:040E1600AB05AA0777
:100E1A00C281120FDEE4FDC281EA120FBEEA25E0AA
:100E2A00FA0DBD08F2C281E4FDC281EB120FBEEBDE
:0B0E3A0025E0FB0DBD08F2D281D28044
:010E4500228A
:100E7200E51144E8F5BC00000000E5BC30E4FB539A
:100E8200BCEFAFBDEF75F004A4FFAEF0ADBEEF4D09
:0B0E9200FFE48F178E16F515F51422F3
:100F7500759D01E4F5BDE51144E8F5BC7F027E00F1
:030F8500020EE574
:100EC000120F75E51144E8F5BC7F057E00120F1D79
:100ED000E51125E025E02408F812098B8E188F19FA
:010EE00022EF
:100CFB00E4F526120E72E51125E025E02408F8C074
:100D0B000012098BEF2517FFEE3516FEED3515FD9D
:100D1B00EC3514FCD0001209970526E526C394C8C0
:100D2B0040D1E51125E025E02408F812098BE47B7E
:100D3B00C8FAF9F81208F98E0D8F0EE51125E0258A
:0B0D4B00E02408F81209A300000000DB
:010D5600227A
:040BE600AB07AA06A9
:100BEA007C277D101208877E037FE8CFCDCFCECC3D
:100BFA00CE1208878F267C037DE8AF03AE02120867
:100C0A00877E007F64CFCDCFCECCCE1208878F27C8
:100C1A007C007D64AF03AE021208877E007F0ACF94
:100C2A00CDCFCECCCE1208878F28AE02AF037C0080
:100C3A007D0A1208878D29E5262430FBE4FD7F0A08
:100C4A00120E55E5272430FBE4FD7F0B120E55E505
:100C5A00282430FBE4FD7F0C120E55E5292430FBD5
:070C6A00E4FD7F0D020E55B1
:0409C8008E268F27C1
:1009CC007C277D101208327E037FE8CFCDCFCECCB2
:1009DC00CE1208328F28AE26AF277C037DE8120892
:1009EC00327E007F64CFCDCFCECCCE1208328F2991
:1009FC00AE26AF277C007D641208327E007F0ACFC2
:100A0C00CDCFCECCCE1208328F2AAE26AF277C00AB
:100A1C007D0A120832AC057D21120F36E528D394DD
:100A2C0000400FAD28120F9A7D10E4FF120E161223
:100A3C000FCFE529D394004009AD29120F9A7D11EF
:100A4C008009E528D39400400AAD29E4FF120E1664
:100A5C00120FCFE52AD39400400FAD2A120F9A7DC6
:100A6C0012E4FF120E16120F88ECD39400400AAD5C
:100A7C0004E4FF120E16120F887D13120F36C3E515
:100A8C002794C4E526940950047D228011C3E527E0
:100A9C009488E526941350047D2380027D24E4FF82
:030AAC00120E1611
:010AAF002224
:10058800D2017A0A7BB0E4FDFF120D5F120D57E429
:10059800F521120CFBE4FCFDE525250EF525E524E7
:1005A800350DF524ED3523F523EC3522F52205210B
:1005B800E521C3946440DBE47B64FAF9F8AF25AE27
:1005C80024AD23AC221208F98E0F8F10E4F525F51F
:1005D80024F523F5227D25120F377A0A7BD2E4FD14
:1005E800FF120D5F7A0A7BE37D01E4FF120D5FC203
:1005F800B6300124120CFBE510240AFFE4350FFE87
:10060800D3E50E9FE50D9E4002C20120B7E3120E0E
:10061800E120B7DDC20180D9D2017A0A7BF4E4FD7A
:10062800FF120D5F7A0B7B057D01E4FF120D5F2041
:100638000103020746120CFBE5102402FFE4350F04
:10064800FED3E50E9FE50D9E5002C20120B70812A9
:100658000EE120B702C201C3E50E9510FFE50D9526
:100668000FFEE4FCFDE5252FF525E5243EF524EDF8
:100678003523F523EC3522F522E47B14FAF9F8AF9B
:1006880025AE24AD23AC221208F9E47B107A27F9B1
:10069800F81208F9AC00AD01AE02AF03E47BE87ACA
:1006A80003F9F81208F9EF2430FB7D017F08120ED8
:1006B80055E47B14FAF9F8AF25AE24AD23AC221229
:1006C80008F9E47BE87A03F9F81208F9AC00AD01FF
:1006D800AE02AF037B64120E46E47B14FAF9F8AF5E
:1006E80025AE24AD23AC221208F9E47B64FAF9F8AC
:1006F8001208F9AC00AD01AE02AF03E47B0AFAF9C7
:10070800F81208F9EF2430FB7D017F0A120E55E438
:100718007B14FAF9F8AF25AE24AD23AC221208F900
:10072800E47B0AFAF9F81208F9EB2430FB7D017F23
:100738000B120E55AF0EAE0D120BE6020637D2B6EF
:10074800AF25AE24AD23AC22E47B14FAF9F81208E5
:10075800F98F258E248D238C227A0B7B16E4FDFFDE
:10076800120D5F7A0B7B277D01E4FF120D5FE47B9E
:10077800107A27F9F8AF25AE24AD23AC221208F978
:10078800AC00AD01AE02AF03E47BE87A03F9F812DE
:1007980008F9EF2430FB7D017F07120E55E47BE852
:1007A8007A03F9F8AF25AE24AD23AC221208F9ACD0
:1007B80000AD01AE02AF03E47B64FAF9F81208F960
:1007C800EF2430FB7D017F08120E55E47B64FAF9B3
:1007D800F8AF25AE24AD23AC221208F9AC00AD0168
:1007E800AE02AF037B0A120E46E47B0AFAF9F8AFB1
:1007F80025AE24AD23AC221208F9EB2430FB7D0191
:100808007F0A120E55AE24AF25E51225E02400F527
:1008180082E43400F583EEF0A3EFF00512E512C38D
:0A08280094664003E4F5120209C8CB
:10000300E5132441FBE4FDFF120E55AF13EF3395C7
:10001300E0FE90000075F00CEF1209BCEE75F00CD9
:10002300A42583F583E0FEA3E0FF7C277D1012085F
:10003300327E037FE8CFCDCFCECCCE120832EF2471
:1000430030FBE4FD7F02120E55AF13EF3395E0FE54
:1000530090000075F00CEF1209BCEE75F00CA425AE
:1000630083F583E0FEA3E0FF7C037DE81208327E84
:10007300007F64CFCDCFCECCCE120832EF2430FB3D
:10008300E4FD7F03120E55AF13EF3395E0FE9000AE
:100093000075F00CEF1209BCEE75F00CA42583F586
:1000A30083E0FEA3E0FF7C007D641208327E007FC4
:1000B3000ACFCDCFCECCCE120832EF2430FBE4FDF5
:1000C3007F04120E55AF13EF3395E0FE90000075D9
:1000D300F00CEF1209BCEE75F00CA42583F583E058
:1000E300FEA3E0FF7C007D0A120832ED2430FBE41E
:1000F300FD7F05120E55AF13EF3395E0FE9000021E
:1001030075F00CEF1209BCEE75F00CA42583F58392
:10011300E0FEA3E0FF7C277D101208327E037FE818
:10012300CFCDCFCECCCE120832EF2430FBE4FD7F0F
:1001330007120E55AF13EF3395E0FE90000275F0F2
:100143000CEF1209BCEE75F00CA42583F583E0FED9
:10015300A3E0FF7C037DE81208327E007F64CFCDED
:10016300CFCECCCE120832EF2430FBE4FD7F081251
:100173000E55AF13EF3395E0FE90000275F00CEFD0
:100183001209BCEE75F00CA42583F583E0FEA3E011
:10019300FF7C007D641208327E007F0ACFCDCFCE74
:1001A300CCCE120832EF2430FBE4FD7F09120E554A
:1001B300AF13EF3395E0FE90000275F00CEF1209D8
:1001C300BCEE75F00CA42583F583E0FEA3E0FF7C71
:1001D300007D0A120832ED2430FBE4FD7F0A120E83
:1001E30055AF13EF3395E0FE90000475F00CEF125A
:1001F30009BCEE75F00CA42583F583E0FEA3E0FFB4
:100203007C277D101208327E037FE8CFCDCFCECC82
:10021300CE120832EF2430FBE4FD7F0C120E55AFF3
:1002230013EF3395E0FE90000475F00CEF1209BC58
:10023300EE75F00CA42583F583E0FEA3E0FF7C03B9
:100243007DE81208327E007F64CFCDCFCECCCE12B4
:100253000832EF2430FBE4FD7F0D120E55AF13EF90
:100263003395E0FE90000475F00CEF1209BCEE75B7
:10027300F00CA42583F583E0FEA3E0FF7C007D64FE
:100283001208327E007F0ACFCDCFCECCCE120832F9
:10029300EF2430FBE4FD7F0E120E55AF13EF3395C1
:1002A300E0FE90000475F00CEF1209BCEE75F00C43
:1002B300A42583F583E0FEA3E0FF7C007D0A1208FA
:1002C30032ED2430FBE4FD7F0F120E55AF13EF33F5
:1002D30095E0FE90000675F00CEF1209BCEE75F088
:1002E3000CA42583F583E0FEA3E0FF7C277D101299
:1002F30008327E037FE8CFCDCFCECCCE120832EFCB
:100303002430FB7D017F02120E55AF13EF3395E0CE
:10031300FE90000675F00CEF1209BCEE75F00CA40C
:100323002583F583E0FEA3E0FF7C037DE81208321A
:100333007E007F64CFCDCFCECCCE120832EF2430F7
:10034300FB7D017F03120E55AF13EF3395E0FE9053
:10035300000675F00CEF1209BCEE75F00CA42583B2
:10036300F583E0FEA3E0FF7C007D641208327E008B
:100373007F0ACFCDCFCECCCE120832EF2430FB7D17
:10038300017F04120E55AF13EF3395E0FE90000684
:1003930075F00CEF1209BCEE75F00CA42583F58300
:1003A300E0FEA3E0FF7C007D0A120832ED2430FB5F
:1003B3007D017F05120E55AF13EF3395E0FE9000DC
:1003C3000875F00CEF1209BCEE75F00CA42583F54B
:1003D30083E0FEA3E0FF7C277D101208327E037FBB
:1003E300E8CFCDCFCECCCE120832EF2430FB7D0147
:1003F3007F07120E55AF13EF3395E0FE900008759B
:10040300F00CEF1209BCEE75F00CA42583F583E024
:10041300FEA3E0FF7C037DE81208327E007F64CFF9
:10042300CDCFCECCCE120832EF2430FB7D017F0836
:10043300120E55AF13EF3395E0FE90000875F00CE4
:10044300EF1209BCEE75F00CA42583F583E0FEA33F
:10045300E0FF7C007D641208327E007F0ACFCDCF9F
:10046300CECCCE120832120E4DAF13EF3395E0FE11
:1004730090000875F00CEF1209BCEE75F00CA42582
:1004830083F583E0FEA3E0FF7C007D0A120832EDD2
:100493002430FB7D017F0A120E55AF13EF3395E035
:1004A300FE90000A75F00CEF1209BCEE75F00CA477
:1004B3002583F583E0FEA3E0FF7C277D101208323D
:1004C3007E037FE8CFCDCFCECCCE120832EF2430DF
:1004D300FB7D017F0C120E55AF13EF3395E0FE90B9
:1004E300000A75F00CEF1209BCEE75F00CA425831D
:1004F300F583E0FEA3E0FF7C037DE81208327E0073
:100503007F64CFCDCFCECCCE120832EF2430FB7D2B
:10051300017F0D120E55AF13EF3395E0FE90000AE5
:1005230075F00CEF1209BCEE75F00CA42583F5836E
:10053300E0FEA3E0FF7C007D641208327E007F0AA8
:10054300CFCDCFCECCCE120832EF2430FB7D017F4E
:100553000E120E55AF13EF3395E0FE90000A75F0BF
:100563000CEF1209BCEE75F00CA42583F583E0FEB5
:10057300A3E0FF7C007D0A120832ED2430FB7D01ED
:050583007F0F020E5580
:100C710020B711120EE120B70B30B7FD120EE1C201
:100C81000012058820B032120EE120B02C20000F96
:100C9100D200E4FD120D5A120D571200038017C243
:100CA100007A0B7B38E4FDFF120D5F7A0B7B497DE7
:100CB10001E4FF120D5F30B0FD20B11D120EE120E5
:100CC100B1173000110513D3E513648094904003EC
:100CD100E4F51312000330B1FD20B21D120EE12024
:100CE100B2173000111513C3E513648094805003CB
:0A0CF10075131012000330B2FD224B
:100DD800759403759303120D98120EC0D2B67A0B50
:100DE8007B38E4FDFF120D5F7A0B7B497D01E4FF40
:100DF800120D5F7FCC900000E4F0A3DFFC7F661249
:0E0E08000F3B7D20E4FF120E16120C7180FBD2
:03000000020B5A96
:0C0B5A00787FE4F6D8FD75812C020BA119
:10083200BC000BBE0029EF8DF084FFADF022E4CCAA
:10084200F875F008EF2FFFEE33FEEC33FCEE9DEC73
:10085200984005FCEE9DFE0FD5F0E9E4CEFD22EDB9
:10086200F8F5F0EE8420D21CFEADF075F008EF2F03
:10087200FFED33FD4007985006D5F0F222C398FDF4
:050882000FD5F0EA2291
:10088700C2D5EC30E709B2D5E4C39DFDE49CFCEE8C
:1008970030E715B2D5E4C39FFFE49EFE120832C3CA
:1008A700E49DFDE49CFC800312083230D507C3E4C5
:0608B7009FFFE49EFE22FB
:1008BD0075F008758200EF2FFFEE33FECD33CDCCF2
:1008CD0033CCC58233C5829BED9AEC99E582984075
:1008DD000CF582EE9BFEED9AFDEC99FC0FD5F0D652
:1008ED00E4CEFBE4CDFAE4CCF9A88222B800C1B97C
:1008FD000059BA002DEC8BF084CFCECDFCE5F0CBBA
:10090D00F97818EF2FFFEE33FEED33FDEC33FCEBF2
:10091D0033FB10D703994004EB99FB0FD8E5E4F9AD
:10092D00FA227818EF2FFFEE33FEED33FDEC33FC9A
:10093D00C933C910D7059BE99A4007EC9BFCE99A8E
:10094D00F90FD8E0E4C9FAE4CCFB2275F010EF2FD3
:10095D00FFEE33FEED33FDCC33CCC833C810D707D3
:10096D009BEC9AE899400AED9BFDEC9AFCE899F80E
:0E097D000FD5F0DAE4CDFBE4CCFAE4C8F922A1
:0C098B00E6FC08E6FD08E6FE08E6FF2298
:0C099700ECF608EDF608EEF608EFF6228C
:1009A300D083D082E493F608740193F6087402931B
:0909B300F608740393F674047352
:0C09BC00A42582F582E5F03583F5832246
:100B6600020DD8E493A3F8E493A34003F68001F2C0
:100B760008DFF48029E493A3F85407240CC8C33390
:100B8600C4540F4420C8834004F456800146F6DF5F
:100B9600E4800B0102040810204080900FACE47E34
:100BA600019360BCA3FF543F30E509541FFEE49354
:100BB600A360010ECF54C025E060A840B8E493A31B
:100BC600FAE493A3F8E493A3C8C582C8CAC583CA46
:100BD600F0A3C8C582C8CAC583CADFE9DEE780BEFE
:010FBD000033
:00000001FF
